{
  "_format": "hh-sol-artifact-1",
  "contractName": "ContractExplainer",
  "sourceName": "contracts/ContractExplainer.sol",
  "abi": [
    {
      "inputs": [
        {
          "internalType": "address",
          "name": "_contractAddress",
          "type": "address"
        }
      ],
      "name": "getContractABI",
      "outputs": [
        {
          "internalType": "string",
          "name": "",
          "type": "string"
        }
      ],
      "stateMutability": "view",
      "type": "function"
    },
    {
      "inputs": [
        {
          "internalType": "address",
          "name": "_contractAddress",
          "type": "address"
        }
      ],
      "name": "getContractBytecode",
      "outputs": [
        {
          "internalType": "bytes",
          "name": "",
          "type": "bytes"
        }
      ],
      "stateMutability": "view",
      "type": "function"
    }
  ],
  "bytecode": "0x6080604052348015600f57600080fd5b506103118061001f6000396000f3fe608060405234801561001057600080fd5b50600436106100365760003560e01c80636b56f74b1461003b57806394e11b241461006b575b600080fd5b61005560048036038101906100509190610185565b61009b565b6040516100629190610242565b60405180910390f35b61008560048036038101906100809190610185565b6100dd565b60405161009291906102b9565b60405180910390f35b606060008273ffffffffffffffffffffffffffffffffffffffff16803b806020016040519081016040528181526000908060200190933c905080915050919050565b606060006040518060400160405280600281526020017f5b5d000000000000000000000000000000000000000000000000000000000000815250905080915050919050565b600080fd5b600073ffffffffffffffffffffffffffffffffffffffff82169050919050565b600061015282610127565b9050919050565b61016281610147565b811461016d57600080fd5b50565b60008135905061017f81610159565b92915050565b60006020828403121561019b5761019a610122565b5b60006101a984828501610170565b91505092915050565b600081519050919050565b600082825260208201905092915050565b60005b838110156101ec5780820151818401526020810190506101d1565b60008484015250505050565b6000601f19601f8301169050919050565b6000610214826101b2565b61021e81856101bd565b935061022e8185602086016101ce565b610237816101f8565b840191505092915050565b6000602082019050818103600083015261025c8184610209565b905092915050565b600081519050919050565b600082825260208201905092915050565b600061028b82610264565b610295818561026f565b93506102a58185602086016101ce565b6102ae816101f8565b840191505092915050565b600060208201905081810360008301526102d38184610280565b90509291505056fea26469706673582212204fb10d957ed475a1ff400c2e5ddd5cee063b5a75da2d26819b61a7fdc8c9af4e64736f6c634300081c0033",
  "linkReferences": {},
  "deployedLinkReferences": {}
}